{
  "_format": "hh-sol-artifact-1",
  "contractName": "L2StandardBridge",
  "sourceName": "contracts/L2/messaging/L2StandardBridge.sol",
  "abi": [
    {
      "inputs": [
        {
          "internalType": "address",
          "name": "_l2CrossDomainMessenger",
          "type": "address"
        },
        {
          "internalType": "address",
          "name": "_l1TokenBridge",
          "type": "address"
        }
      ],
      "stateMutability": "nonpayable",
      "type": "constructor"
    },
    {
      "anonymous": false,
      "inputs": [
        {
          "indexed": true,
          "internalType": "address",
          "name": "_l1Token",
          "type": "address"
        },
        {
          "indexed": true,
          "internalType": "address",
          "name": "_l2Token",
          "type": "address"
        },
        {
          "indexed": true,
          "internalType": "address",
          "name": "_from",
          "type": "address"
        },
        {
          "indexed": false,
          "internalType": "address",
          "name": "_to",
          "type": "address"
        },
        {
          "indexed": false,
          "internalType": "uint256",
          "name": "_amount",
          "type": "uint256"
        },
        {
          "indexed": false,
          "internalType": "bytes",
          "name": "_data",
          "type": "bytes"
        }
      ],
      "name": "DepositFailed",
      "type": "event"
    },
    {
      "anonymous": false,
      "inputs": [
        {
          "indexed": true,
          "internalType": "address",
          "name": "_l1Token",
          "type": "address"
        },
        {
          "indexed": true,
          "internalType": "address",
          "name": "_l2Token",
          "type": "address"
        },
        {
          "indexed": true,
          "internalType": "address",
          "name": "_from",
          "type": "address"
        },
        {
          "indexed": false,
          "internalType": "address",
          "name": "_to",
          "type": "address"
        },
        {
          "indexed": false,
          "internalType": "uint256",
          "name": "_amount",
          "type": "uint256"
        },
        {
          "indexed": false,
          "internalType": "bytes",
          "name": "_data",
          "type": "bytes"
        }
      ],
      "name": "DepositFinalized",
      "type": "event"
    },
    {
      "anonymous": false,
      "inputs": [
        {
          "indexed": true,
          "internalType": "address",
          "name": "_l1Token",
          "type": "address"
        },
        {
          "indexed": true,
          "internalType": "address",
          "name": "_l2Token",
          "type": "address"
        },
        {
          "indexed": true,
          "internalType": "address",
          "name": "_from",
          "type": "address"
        },
        {
          "indexed": false,
          "internalType": "address",
          "name": "_to",
          "type": "address"
        },
        {
          "indexed": false,
          "internalType": "uint256",
          "name": "_amount",
          "type": "uint256"
        },
        {
          "indexed": false,
          "internalType": "bytes",
          "name": "_data",
          "type": "bytes"
        }
      ],
      "name": "WithdrawalInitiated",
      "type": "event"
    },
    {
      "inputs": [
        {
          "internalType": "address",
          "name": "_l1Token",
          "type": "address"
        },
        {
          "internalType": "address",
          "name": "_l2Token",
          "type": "address"
        },
        {
          "internalType": "address",
          "name": "_from",
          "type": "address"
        },
        {
          "internalType": "address",
          "name": "_to",
          "type": "address"
        },
        {
          "internalType": "uint256",
          "name": "_amount",
          "type": "uint256"
        },
        {
          "internalType": "bytes",
          "name": "_data",
          "type": "bytes"
        }
      ],
      "name": "finalizeDeposit",
      "outputs": [],
      "stateMutability": "nonpayable",
      "type": "function"
    },
    {
      "inputs": [],
      "name": "l1TokenBridge",
      "outputs": [
        {
          "internalType": "address",
          "name": "",
          "type": "address"
        }
      ],
      "stateMutability": "view",
      "type": "function"
    },
    {
      "inputs": [],
      "name": "messenger",
      "outputs": [
        {
          "internalType": "address",
          "name": "",
          "type": "address"
        }
      ],
      "stateMutability": "view",
      "type": "function"
    },
    {
      "inputs": [
        {
          "internalType": "address",
          "name": "_l2Token",
          "type": "address"
        },
        {
          "internalType": "uint256",
          "name": "_amount",
          "type": "uint256"
        },
        {
          "internalType": "uint32",
          "name": "_l1Gas",
          "type": "uint32"
        },
        {
          "internalType": "bytes",
          "name": "_data",
          "type": "bytes"
        }
      ],
      "name": "withdraw",
      "outputs": [],
      "stateMutability": "payable",
      "type": "function"
    },
    {
      "inputs": [
        {
          "internalType": "uint256",
          "name": "_amount",
          "type": "uint256"
        },
        {
          "internalType": "uint32",
          "name": "_l1Gas",
          "type": "uint32"
        },
        {
          "internalType": "bytes",
          "name": "_data",
          "type": "bytes"
        }
      ],
      "name": "withdrawGCD",
      "outputs": [],
      "stateMutability": "payable",
      "type": "function"
    },
    {
      "inputs": [
        {
          "internalType": "address",
          "name": "_to",
          "type": "address"
        },
        {
          "internalType": "uint256",
          "name": "_amount",
          "type": "uint256"
        },
        {
          "internalType": "uint32",
          "name": "_l1Gas",
          "type": "uint32"
        },
        {
          "internalType": "bytes",
          "name": "_data",
          "type": "bytes"
        }
      ],
      "name": "withdrawGCDTo",
      "outputs": [],
      "stateMutability": "payable",
      "type": "function"
    },
    {
      "inputs": [
        {
          "internalType": "address",
          "name": "_l2Token",
          "type": "address"
        },
        {
          "internalType": "address",
          "name": "_to",
          "type": "address"
        },
        {
          "internalType": "uint256",
          "name": "_amount",
          "type": "uint256"
        },
        {
          "internalType": "uint32",
          "name": "_l1Gas",
          "type": "uint32"
        },
        {
          "internalType": "bytes",
          "name": "_data",
          "type": "bytes"
        }
      ],
      "name": "withdrawTo",
      "outputs": [],
      "stateMutability": "payable",
      "type": "function"
    }
  ],
  "bytecode": "0x608060405234801561001057600080fd5b5060405162001724380380620017248339810160408190526100319161007e565b600080546001600160a01b039384166001600160a01b031991821617909155600180549290931691161790556100b1565b80516001600160a01b038116811461007957600080fd5b919050565b6000806040838503121561009157600080fd5b61009a83610062565b91506100a860208401610062565b90509250929050565b61166380620000c16000396000f3fe6080604052600436106100705760003560e01c80633cb747bf1161004e5780633cb747bf146100f3578063662a633a14610120578063a3a7954814610140578063f6ccf3b41461015357600080fd5b8063088f10961461007557806332b7006d1461008a57806336c717c11461009d575b600080fd5b610088610083366004610fe4565b610166565b005b610088610098366004610fe4565b610190565b3480156100a957600080fd5b506001546100ca9073ffffffffffffffffffffffffffffffffffffffff1681565b60405173ffffffffffffffffffffffffffffffffffffffff909116815260200160405180910390f35b3480156100ff57600080fd5b506000546100ca9073ffffffffffffffffffffffffffffffffffffffff1681565b34801561012c57600080fd5b5061008861013b366004611055565b61019f565b61008861014e3660046110ed565b61066d565b610088610161366004611170565b610684565b61018973deaddeaddeaddeaddeaddeaddeaddeaddead00003387878787876106ad565b5050505050565b610189853333878787876106ad565b60015473ffffffffffffffffffffffffffffffffffffffff166101d760005473ffffffffffffffffffffffffffffffffffffffff1690565b73ffffffffffffffffffffffffffffffffffffffff163373ffffffffffffffffffffffffffffffffffffffff1614610296576040517f08c379a000000000000000000000000000000000000000000000000000000000815260206004820152602e60248201527f4f564d5f58434841494e3a206d657373656e67657220636f6e7472616374207560448201527f6e61757468656e7469636174656400000000000000000000000000000000000060648201526084015b60405180910390fd5b8073ffffffffffffffffffffffffffffffffffffffff166102cc60005473ffffffffffffffffffffffffffffffffffffffff1690565b73ffffffffffffffffffffffffffffffffffffffff16636e296e456040518163ffffffff1660e01b815260040160206040518083038186803b15801561031157600080fd5b505afa158015610325573d6000803e3d6000fd5b505050506040513d601f19601f8201168201806040525081019061034991906111ca565b73ffffffffffffffffffffffffffffffffffffffff16146103ec576040517f08c379a000000000000000000000000000000000000000000000000000000000815260206004820152603060248201527f4f564d5f58434841494e3a2077726f6e672073656e646572206f662063726f7360448201527f732d646f6d61696e206d65737361676500000000000000000000000000000000606482015260840161028d565b610416877f1d1d8b6300000000000000000000000000000000000000000000000000000000610ba7565b80156104cc57508673ffffffffffffffffffffffffffffffffffffffff1663c01e1bd66040518163ffffffff1660e01b8152600401602060405180830381600087803b15801561046557600080fd5b505af1158015610479573d6000803e3d6000fd5b505050506040513d601f19601f8201168201806040525081019061049d91906111ca565b73ffffffffffffffffffffffffffffffffffffffff168873ffffffffffffffffffffffffffffffffffffffff16145b156105e0576040517f40c10f1900000000000000000000000000000000000000000000000000000000815273ffffffffffffffffffffffffffffffffffffffff8681166004830152602482018690528816906340c10f1990604401600060405180830381600087803b15801561054157600080fd5b505af1158015610555573d6000803e3d6000fd5b505050508573ffffffffffffffffffffffffffffffffffffffff168773ffffffffffffffffffffffffffffffffffffffff168973ffffffffffffffffffffffffffffffffffffffff167fb0444523268717a02698be47d0803aa7468c00acbed2f8bd93a0459cde61dd89888888886040516105d39493929190611237565b60405180910390a4610663565b8573ffffffffffffffffffffffffffffffffffffffff168773ffffffffffffffffffffffffffffffffffffffff168973ffffffffffffffffffffffffffffffffffffffff167f7ea89a4591614515571c2b51f5ea06494056f261c10ab1ed8c03c7590d87bce08888888860405161065a9493929190611237565b60405180910390a45b5050505050505050565b61067c863387878787876106ad565b505050505050565b6106a773deaddeaddeaddeaddeaddeaddeaddeaddead00003333878787876106ad565b50505050565b600073420000000000000000000000000000000000000f73ffffffffffffffffffffffffffffffffffffffff1663c567769f6040518163ffffffff1660e01b815260040160206040518083038186803b15801561070957600080fd5b505afa15801561071d573d6000803e3d6000fd5b505050506040513d601f19601f82011682018060405250810190610741919061126d565b9050803410158061077b575073ffffffffffffffffffffffffffffffffffffffff8716734200000000000000000000000000000000000011145b61078482610bcc565b60405160200161079491906112b2565b604051602081830303815290604052906107db576040517f08c379a000000000000000000000000000000000000000000000000000000000815260040161028d9190611367565b506040517f9dc29fac0000000000000000000000000000000000000000000000000000000081523360048201526024810186905273ffffffffffffffffffffffffffffffffffffffff891690639dc29fac90604401600060405180830381600087803b15801561084a57600080fd5b505af115801561085e573d6000803e3d6000fd5b5050505060008873ffffffffffffffffffffffffffffffffffffffff1663c01e1bd66040518163ffffffff1660e01b8152600401602060405180830381600087803b1580156108ac57600080fd5b505af11580156108c0573d6000803e3d6000fd5b505050506040513d601f19601f820116820180604052508101906108e491906111ca565b9050606073ffffffffffffffffffffffffffffffffffffffff8a1673420000000000000000000000000000000000000a14156109db577f0546aaa900000000000000000000000000000000000000000000000000000000465b8a8a8a89896040516024016109579695949392919061137a565b604080517fffffffffffffffffffffffffffffffffffffffffffffffffffffffffffffffe08184030181529190526020810180517bffffffffffffffffffffffffffffffffffffffffffffffffffffffff167fffffffff00000000000000000000000000000000000000000000000000000000909316929092179091529050610af4565b73ffffffffffffffffffffffffffffffffffffffff8a1673deaddeaddeaddeaddeaddeaddeaddeaddead00001415610a34577f7bcc4ecd000000000000000000000000000000000000000000000000000000004661093d565b7f6cebdc450000000000000000000000000000000000000000000000000000000046838c8c8c8c8b8b604051602401610a749897969594939291906113cc565b604080517fffffffffffffffffffffffffffffffffffffffffffffffffffffffffffffffe08184030181529190526020810180517bffffffffffffffffffffffffffffffffffffffffffffffffffffffff167fffffffff000000000000000000000000000000000000000000000000000000009093169290921790915290505b600154610b199073ffffffffffffffffffffffffffffffffffffffff16878334610d29565b3373ffffffffffffffffffffffffffffffffffffffff168a73ffffffffffffffffffffffffffffffffffffffff168373ffffffffffffffffffffffffffffffffffffffff167f73d170910aba9e6d50b102db522b1dbcd796216f5128b445aa2135272886497e8b8b8a8a604051610b939493929190611237565b60405180910390a450505050505050505050565b6000610bb283610dbd565b8015610bc35750610bc38383610e21565b90505b92915050565b606081610c0c57505060408051808201909152600181527f3000000000000000000000000000000000000000000000000000000000000000602082015290565b8160005b8115610c365780610c208161145f565b9150610c2f9050600a83611498565b9150610c10565b60008167ffffffffffffffff811115610c5157610c516114d3565b6040519080825280601f01601f191660200182016040528015610c7b576020820181803683370190505b509050815b8515610d2057610c91600182611502565b90506000610ca0600a88611498565b610cab90600a611519565b610cb59088611502565b610cc0906030611556565b905060008160f81b905080848481518110610cdd57610cdd61157b565b60200101907effffffffffffffffffffffffffffffffffffffffffffffffffffffffffffff1916908160001a905350610d17600a89611498565b97505050610c80565b50949350505050565b6000546040517f3dbb202b00000000000000000000000000000000000000000000000000000000815273ffffffffffffffffffffffffffffffffffffffff90911690633dbb202b908390610d85908890879089906004016115aa565b6000604051808303818588803b158015610d9e57600080fd5b505af1158015610db2573d6000803e3d6000fd5b505050505050505050565b6000610de9827f01ffc9a700000000000000000000000000000000000000000000000000000000610e21565b8015610bc65750610e1a827fffffffff00000000000000000000000000000000000000000000000000000000610e21565b1592915050565b604080517fffffffff00000000000000000000000000000000000000000000000000000000831660248083019190915282518083039091018152604490910182526020810180517bffffffffffffffffffffffffffffffffffffffffffffffffffffffff167f01ffc9a7000000000000000000000000000000000000000000000000000000001790529051600091908290819073ffffffffffffffffffffffffffffffffffffffff87169061753090610edb9086906115ef565b6000604051808303818686fa925050503d8060008114610f17576040519150601f19603f3d011682016040523d82523d6000602084013e610f1c565b606091505b5091509150602081511015610f375760009350505050610bc6565b818015610f53575080806020019051810190610f53919061160b565b9695505050505050565b73ffffffffffffffffffffffffffffffffffffffff81168114610f7f57600080fd5b50565b803563ffffffff81168114610f9657600080fd5b919050565b60008083601f840112610fad57600080fd5b50813567ffffffffffffffff811115610fc557600080fd5b602083019150836020828501011115610fdd57600080fd5b9250929050565b600080600080600060808688031215610ffc57600080fd5b853561100781610f5d565b94506020860135935061101c60408701610f82565b9250606086013567ffffffffffffffff81111561103857600080fd5b61104488828901610f9b565b969995985093965092949392505050565b600080600080600080600060c0888a03121561107057600080fd5b873561107b81610f5d565b9650602088013561108b81610f5d565b9550604088013561109b81610f5d565b945060608801356110ab81610f5d565b93506080880135925060a088013567ffffffffffffffff8111156110ce57600080fd5b6110da8a828b01610f9b565b989b979a50959850939692959293505050565b60008060008060008060a0878903121561110657600080fd5b863561111181610f5d565b9550602087013561112181610f5d565b94506040870135935061113660608801610f82565b9250608087013567ffffffffffffffff81111561115257600080fd5b61115e89828a01610f9b565b979a9699509497509295939492505050565b6000806000806060858703121561118657600080fd5b8435935061119660208601610f82565b9250604085013567ffffffffffffffff8111156111b257600080fd5b6111be87828801610f9b565b95989497509550505050565b6000602082840312156111dc57600080fd5b81516111e781610f5d565b9392505050565b8183528181602085013750600060208284010152600060207fffffffffffffffffffffffffffffffffffffffffffffffffffffffffffffffe0601f840116840101905092915050565b73ffffffffffffffffffffffffffffffffffffffff85168152836020820152606060408201526000610f536060830184866111ee565b60006020828403121561127f57600080fd5b5051919050565b60005b838110156112a1578181015183820152602001611289565b838111156106a75750506000910152565b7f696e73756666696369656e74207769746864726177616c20666565207375707081527f6c6965642e206e656564206174206c6561737420000000000000000000000000602082015260008251611310816034850160208701611286565b9190910160340192915050565b60008151808452611335816020860160208601611286565b601f017fffffffffffffffffffffffffffffffffffffffffffffffffffffffffffffffe0169290920160200192915050565b602081526000610bc3602083018461131d565b868152600073ffffffffffffffffffffffffffffffffffffffff808816602084015280871660408401525084606083015260a060808301526113c060a0830184866111ee565b98975050505050505050565b888152600073ffffffffffffffffffffffffffffffffffffffff808a166020840152808916604084015280881660608401528087166080840152508460a083015260e060c083015261142260e0830184866111ee565b9a9950505050505050505050565b7f4e487b7100000000000000000000000000000000000000000000000000000000600052601160045260246000fd5b60007fffffffffffffffffffffffffffffffffffffffffffffffffffffffffffffffff82141561149157611491611430565b5060010190565b6000826114ce577f4e487b7100000000000000000000000000000000000000000000000000000000600052601260045260246000fd5b500490565b7f4e487b7100000000000000000000000000000000000000000000000000000000600052604160045260246000fd5b60008282101561151457611514611430565b500390565b6000817fffffffffffffffffffffffffffffffffffffffffffffffffffffffffffffffff048311821515161561155157611551611430565b500290565b600060ff821660ff84168060ff0382111561157357611573611430565b019392505050565b7f4e487b7100000000000000000000000000000000000000000000000000000000600052603260045260246000fd5b73ffffffffffffffffffffffffffffffffffffffff841681526060602082015260006115d9606083018561131d565b905063ffffffff83166040830152949350505050565b60008251611601818460208701611286565b9190910192915050565b60006020828403121561161d57600080fd5b815180151581146111e757600080fdfea26469706673582212201ca98eb02b6508b29a93ed071c81998d3a9bac3d343087438c9702829c0c3bc564736f6c63430008090033",
  "linkReferences": {},
  "deployedLinkReferences": {}
}